:020000040000fa
:080000000002040000000000f2
:020000040000fa
:04000800c80200002a
:020000040000fa
:04000c00c802000026
:020000040000fa
:04001000c802000022
:020000040000fa
:04001400c80200001e
:020000040000fa
:04001800c80200001a
:020000040000fa
:04001c00c802000016
:020000040000fa
:04002000c802000012
:020000040000fa
:04002400c80200000e
:020000040000fa
:04002800c80200000a
:020000040000fa
:04002c00c802000006
:020000040000fa
:04003000c802000002
:020000040000fa
:04003400c8020000fe
:020000040000fa
:04003800c8020000fa
:020000040000fa
:04003c00c8020000f6
:020000040000fa
:04004000c8020000f2
:020000040000fa
:04004400c8020000ee
:020000040000fa
:04004800c8020000ea
:020000040000fa
:04004c00c8020000e6
:020000040000fa
:04005000c8020000e2
:020000040000fa
:04005400c8020000de
:020000040000fa
:04005800c8020000da
:020000040000fa
:04005c00c8020000d6
:020000040000fa
:04006000c8020000d2
:020000040000fa
:04006400c8020000ce
:020000040000fa
:04006800c8020000ca
:020000040000fa
:04006c00c8020000c6
:020000040000fa
:04007000c8020000c2
:020000040000fa
:04007400c8020000be
:020000040000fa
:04007800c8020000ba
:020000040000fa
:04007c00c8020000b6
:020000040000fa
:04008000c8020000b2
:020000040000fa
:04008400c8020000ae
:020000040000fa
:04008800c8020000aa
:020000040000fa
:04008c00c8020000a6
:020000040000fa
:04009000c8020000a2
:020000040000fa
:04009400c80200009e
:020000040000fa
:04009800c80200009a
:020000040000fa
:04009c00c802000096
:020000040000fa
:0400a000c802000092
:020000040000fa
:0400a400c80200008e
:020000040000fa
:0400a800c80200008a
:020000040000fa
:0400ac00c802000086
:020000040000fa
:0400b000c802000082
:020000040000fa
:0400b400c80200007e
:020000040000fa
:0400b800c80200007a
:020000040000fa
:0400bc00c802000076
:020000040000fa
:0400c000c802000072
:020000040000fa
:0400c400c80200006e
:020000040000fa
:0400c800c80200006a
:020000040000fa
:0400cc00c802000066
:020000040000fa
:0400d000c802000062
:020000040000fa
:0400d400c80200005e
:020000040000fa
:0400d800c80200005a
:020000040000fa
:0400dc00c802000056
:020000040000fa
:0400e000c802000052
:020000040000fa
:0400e400c80200004e
:020000040000fa
:0400e800c80200004a
:020000040000fa
:0400ec00c802000046
:020000040000fa
:0400f000c802000042
:020000040000fa
:0400f400c80200003e
:020000040000fa
:0400f800c80200003a
:020000040000fa
:0400fc00c802000036
:020000040000fa
:04010000c802000031
:020000040000fa
:04010400c80200002d
:020000040000fa
:04010800c802000029
:020000040000fa
:04010c00c802000025
:020000040000fa
:04011000c802000021
:020000040000fa
:04011400c80200001d
:020000040000fa
:04011800c802000019
:020000040000fa
:04011c00c802000015
:020000040000fa
:04012000c802000011
:020000040000fa
:04012400c80200000d
:020000040000fa
:04012800c802000009
:020000040000fa
:04012c00c802000005
:020000040000fa
:04013000c802000001
:020000040000fa
:04013400c8020000fd
:020000040000fa
:04020800c802000028
:020000040000fa
:04020c00c802000024
:020000040000fa
:04021000c802000020
:020000040000fa
:04021400c80200001c
:020000040000fa
:04021800c802000018
:020000040000fa
:04021c00c802000014
:020000040000fa
:04022000c802000010
:020000040000fa
:04022400c80200000c
:020000040000fa
:04022800c802000008
:020000040000fa
:04022c00c802000004
:020000040000fa
:04023000c802000000
:020000040000fa
:04023400c8020000fc
:020000040000fa
:04023800c8020000f8
:020000040000fa
:04023c00c8020000f4
:020000040000fa
:04024000c8020000f0
:020000040000fa
:04024400c8020000ec
:020000040000fa
:04024800c8020000e8
:020000040000fa
:04024c00c8020000e4
:020000040000fa
:04025000c8020000e0
:020000040000fa
:04025400c8020000dc
:020000040000fa
:04025800c8020000d8
:020000040000fa
:04025c00c8020000d4
:020000040000fa
:04026000c8020000d0
:020000040000fa
:04026400c8020000cc
:020000040000fa
:04026800c8020000c8
:020000040000fa
:04026c00c8020000c4
:020000040000fa
:04027000c8020000c0
:020000040000fa
:04027400c8020000bc
:020000040000fa
:04027800c8020000b8
:020000040000fa
:04027c00c8020000b4
:020000040000fa
:04028000c8020000b0
:020000040000fa
:04028400c8020000ac
:020000040000fa
:04028800c8020000a8
:020000040000fa
:04028c00c8020000a4
:020000040000fa
:04029000c8020000a0
:020000040000fa
:04029400c80200009c
:020000040000fa
:04029800c802000098
:020000040000fa
:04029c00c802000094
:020000040000fa
:0402a000c802000090
:020000040000fa
:0402a400c80200008c
:020000040000fa
:0402a800c802000088
:020000040000fa
:0402ac00c802000084
:020000040000fa
:0402b000c802000080
:020000040000fa
:0402b400c80200007c
:020000040000fa
:0402b800c802000078
:020000040000fa
:0402bc00c802000074
:020000040000fa
:0402c000c802000070
:020000040000fa
:0402c400c80200006c
:020000040000fa
:0402c800c802000068
:020000040000fa
:0402cc00c802000064
:020000040000fa
:0402d000c802000060
:020000040000fa
:0402d400c80200005c
:020000040000fa
:0402d800c802000058
:020000040000fa
:0402dc00c802000054
:020000040000fa
:0402e000c802000050
:020000040000fa
:0402e400c80200004c
:020000040000fa
:0402e800c802000048
:020000040000fa
:0402ec00c802000044
:020000040000fa
:0402f000c802000040
:020000040000fa
:0402f400c80200003c
:020000040000fa
:0402f800c802000038
:020000040000fa
:0402fc00c802000034
:020000040000fa
:04030000c80200002f
:020000040000fa
:04030400c80200002b
:020000040000fa
:04030800c802000027
:020000040000fa
:04030c00c802000023
:020000040000fa
:04031000c80200001f
:020000040000fa
:04031400c80200001b
:020000040000fa
:04031800c802000017
:020000040000fa
:04031c00c802000013
:020000040000fa
:04032000c80200000f
:020000040000fa
:04032400c80200000b
:020000040000fa
:04032800c802000007
:020000040000fa
:04032c00c802000003
:020000040000fa
:04033000c8020000ff
:020000040000fa
:04033400c8020000fb
:020000040000fa
:100400006f8220000e7f22000e0188000000000095
:10041000000020000000e000020032000001200087
:1004200020028800140007005b0007000000e000c5
:1004300003003a0080a220000100200002003700e3
:100440000000200001002000810f70000100320038
:1004500014000700000020000000e000020032004d
:100460000000020000000000760902000000000009
:100470000040da000000fe004440a9000000200017
:100480000000e0000300320000002000a00188000e
:100490004440a800000006008a1f78008b1f7800e7
:1004a0000000060091018800800478000000eb0045
:1004b0001a003700e284440032a0b4009905ba0063
:1004c000e284440032a0b4009906ba00e2844400f9
:1004d00032a0b4000006eb00476fde00fd07b2005b
:1004e000636ce10003003a00ebff07000000eb0043
:1004f0000a003700606ce10004003a00005deb0088
:100500008b05e900fdff3e00040037006168e10053
:10051000010032000086eb000b00070019c7ba008b
:100520001905ba000e04e00003003a000a00e000da
:10053000e0ff3a0000000600fe07b2009e018800be
:100540008a047800f5ff3700395dba008b05e900b1
:100550000c003200295dba008b05e900080032006a
:100560000c00e00003003a00e284440032a0b40032
:10057000f5ff370019ddba008b05e900faff3a00f4
:100580008904e800e184440032a0b40000000600c1
:0c0590000040da000000fe000000050042
:020000040000fa
:10059c000000fa004427ef00230020006104200033
:1005ac007205200024742000014a7800024a780069
:1005bc00034a780000000000113a8000e2806000dd
:1005cc000100e000fcff320050052000303b8800a9
:1005dc00a00a2000303b880027a6a80027e6a80028
:1005ec0027a6a9000080fa00000006000c00fa0003
:1005fc00500798000000eb00300798000000eb005b
:10060c00400798000040eb00004f78001e003700b8
:10061c005e009000104078006f4160005e0090001a
:10062c00024878001e407800e14f500003003e0065
:10063c00680047001007980002003700660047006a
:10064c00100798001e009000100078004401dd0097
:10065c001e009000020878001e0090001001780027
:10066c005e009000104078000080fb0002017000da
:10067c001e009000020878005e0090000000e80068
:10068c00500798001e4fe8001e407800e54f5000c0
:10069c00dfff360051052000313b8800a10a200005
:1006ac00313b880027a6a80031318000f0cf2f0005
:1006bc0000806000303188003e00900020318800be
:1006cc0031318000f0cf2f00008060000080a0004e
:1006dc00303188002131800021079800ae00900055
:1006ec0000f02f000080600020079800313180005e
:1006fc00f0cf2f00008060000080a0003031880017
:10070c004e009000ae009000010070002007980091
:10071c00ae0090002131880027a6a9000080fa00c5
:10072c00000006001000fa00700798000000eb00b3
:10073c00400798000000eb00500798000000eb0009
:10074c00600798000000eb00200798000040eb00c9
:10075c00004f7800240037007e0090001040780095
:10076c006f4160007e009000024878001e407800c7
:10077c00e14f500003003e0068004700100798004e
:10078c00080037001e407800e34f500003003e0085
:10079c006a00470010079800020037006c00470001
:1007ac00100798001e009000100078004401dd0036
:1007bc001e009000020878001e00900010017800c6
:1007cc007e009000104078000080fb000201700059
:1007dc001e009000020878007e0090000000e800e7
:1007ec00700798001e4fe8001e407800e74f50003d
:1007fc00d9ff36007e009000104078006f416000f9
:10080c007e009000024878007e0090001040780036
:10081c000080fb002007980051052000313b880028
:10082c00a10a2000313b880027a6a80031318000a6
:10083c00f0cf2f00008060000080a00030318800d5
:10084c002e0090004800dd00200798002131800028
:10085c0031079800be009000f00f2000008060006f
:10086c003007980031318000f0cf2f0000806000fd
:10087c000080a00030318800be0090002e00900057
:10088c000100700030079800be00900021318800f4
:10089c0031318000f0cf2f00008060000090a0006c
:1008ac00303188005e0090004800dd005007980051
:1008bc00de0090004e009000010070005007980080
:1008cc005e00900020318800313180000030200023
:1008dc000100700030318800ee009000f00f200015
:1008ec0000806000600798006e0090002031880046
:1008fc0027a6a9000080fa00000006000600fa00f6
:10090c00200798002e0090006500400020079800fa
:10091c0031318000f0cf2f00008060003031880032
:10092c0021318000010f78000040eb002047980037
:10093c000e0037001e00780000407800ef40600089
:10094c002e009000014878002e0090000000e90075
:10095c00200798001e0078004400de00000f78008d
:10096c002e4090000040e800204798002e40900058
:10097c00e34f5000efff360031318000f0cf2f00f5
:10098c00008060000080a0003031880021318000a0
:10099c00010f78001e00780000407800ef406000e6
:1009ac002e009000014878002e0090000000e90015
:1009bc00200798001e0078004400de00000f78002d
:1009cc001e00780000407800ef4060002e00900080
:1009dc00014878000080fa00000006000200fa00ce
:1009ec00000f78001e0078004400de006a00b90099
:1009fc00800078001e0178006f00610000804000cc
:100a0c000080fa00000006000800fa003007980089
:100a1c0031318000f0cf2f00008060003031880031
:100a2c002031800080007800f00f2000008f6000e3
:100a3c00203180004800de00100798001e0078006e
:100a4c00e6ff0700be009000800878001e009000b2
:100a5c00e2ff0700be00900090009800313180004a
:100a6c00f0cf2f00008060000080a00030318800a3
:100a7c002031800080007800f00f200000806000a2
:100a8c00200798002e009000d4ff0700be009000b5
:100a9c00a00098000080fa00000006000400fa0094
:100aac001007980031318000f0cf2f0000806000db
:100abc000080a0003031880021318000010f7800c7
:100acc001e0078004800de00000f78001e00900029
:100adc00680040009e007800814078000148780052
:100aec0031318000f0cf2f00008060000090a0001a
:100afc003031880021318000010f78001e009000f9
:100b0c000000e8009e00780081407800efc0600093
:100b1c00014878001e0078004400de00000f7800c9
:100b2c001e00780000407800ef4060001e0090002e
:100b3c00014878001e0078004400de00000f7800a9
:100b4c001e009000630040009e00780081407800f9
:100b5c00efc06000014878001e0078004400de0001
:100b6c00000f78001e0090000080e8009e007800c6
:100b7c0081407800efc06000014878001e007800ca
:100b8c004400de00000f780031318000003020007e
:100b9c00010070003031880021318000010f780095
:100bac001e009000670040009e0078008140780095
:100bbc00efc06000014878001e0078004400de00a1
:100bcc00000f78001e009000660040009e00780028
:100bdc0081407800efc06000014878001e00900052
:100bec00650040008040eb00014878001e0090003a
:100bfc006400400021c0b300014878000080fa0076
:100c0c00000006000800fa00300798000e0078007b
:100c1c003aff07001e4078000043b0008040780087
:100c2c003e009000014878003e0090000000e80073
:100c3c009e4090000143b000014878003e009000b7
:100c4c000080e800a1c3b300014878003e0090008a
:100c5c0063004000ae4090000143b00001487800b2
:100c6c003e00900064004000be4090000143b00084
:100c7c00014878003e00900065004000a1c3b3001d
:100c8c00014878003e00900066004000ce40900085
:100c9c000143b000014878003e009000670040001e
:100cac00de4090000143b000014878003e00900007
:100cbc00680040008040eb00014878000080fa009a
:100ccc00000006000c00fa00500798000e00780097
:100cdc0072ff07001e4078000043b000804078008f
:100cec005e009000014878005e0090000000e80073
:100cfc009e4090000143b000014878005e009000d7
:100d0c000080e800e1c2b300014878005e0090006a
:100d1c0063004000ae4090000143b00001487800f1
:100d2c005e00900064004000be4090000143b000a3
:100d3c00014878005e00900065004000e1c2b300fd
:100d4c00014878005e00900066004000ce409000a4
:100d5c000143b000014878005e009000670040003d
:100d6c00de4090000143b000014878005e00900026
:100d7c0068004000ee4090000143b000014878004c
:100d8c005e00900069004000fe4090000143b000fe
:100d9c00014878005e0090006a00400001c2b30078
:100dac00014878000e4890000080fb00e30f5000d3
:100dbc0037003200e30f500007003c00e10f5000f9
:100dcc0019003200e10f500024003c000000e0004c
:100ddc000800320062003700e50f50004600320078
:100dec00e50f500037003500e60f50004f00320081
:100dfc005b0037005e0090006b004000e1c6b30062
:100e0c00014878005e0090006c00400051c6b300b1
:100e1c00014878005e0090006d00400041c6b300b0
:100e2c00014878004e0037005e0090006b004000d7
:100e3c0001c7b300014878005e0090006c004000d0
:100e4c00f1c6b300014878005e0090006d004000d0
:100e5c00e1c6b30001487800410037005e00900005
:100e6c006b00400051c7b300014878005e00900051
:100e7c006c00400041c7b300014878005e00900050
:100e8c006d00400051c6b3000148780034003700b3
:100e9c005e0090006b00400031c7b3000148780041
:100eac005e0090006c00400041c7b3000148780020
:100ebc005e0090006d00400021c7b300014878002f
:100ecc00270037005e0090006b00400031c6b30075
:100edc00014878005e0090006c00400041c7b300f0
:100eec00014878005e0090006d00400061c7b300bf
:100efc00014878001a0037005e0090006b0040003b
:100f0c0001c7b300014878005e0090006c004000ff
:100f1c0011c6b300014878005e0090006d004000df
:100f2c0041c7b300014878000d0037005e00900007
:100f3c006b00400031c7b300014878005e009000a0
:100f4c006c004000f1c6b300014878005e009000d0
:100f5c006d00400021c6b30001487800000000007d
:100f6c005e0090006e0040008040eb00014878006d
:100f7c000080fa00000006000000fa00e116800074
:100f8c0000f02f0000806000e0168800d682a900d7
:100f9c00d6a2a900cbe2a900c116800000f02f0058
:100fac0000806000c0168800d282a900d2a2a900dd
:100fbc00c7e2a900004c2d001100200031010700f0
:100fcc00e116800000f02f0000806000e016880021
:100fdc00e11680008003200001007000e0168800fc
:100fec00d682a800000000000000000000000000f5
:100ffc00d682a90000c429000100200021010700ad
:10100c00e116800000f02f0000806000e0168800e0
:10101c00e11680008003200001007000e0168800bb
:10102c00d682a800000000000000000000000000b4
:10103c00d682a900004b20000100200011010700fe
:10104c0080c3b30008000700c0c0b300060007004f
:10105c0060c0b3000400070010c0b300020007001a
:10106c000080fa00000006000200fa00004f780031
:10107c00d6a2a900cbe2a900e116800000f02f0057
:10108c0000806000e01688009e80fb00e016800067
:10109c0001007000e0168800d682a8000000000055
:1010ac000000000000000000d682a9009e80fb001a
:1010bc00c00f2000008060000000e000040032003f
:1010cc000019200001002000ee000700030037008b
:1010dc0000e8230001002000ea0007000080fa006d
:1010ec00000006000200fa00004f7800d6a2a9000a
:1010fc00cbe2a800e116800000f02f000080600019
:10110c00e01688009e80fb00e01680000100700055
:10111c00e0168800d682a800000000000000000045
:10112c0000000000d682a900cbe2a9000014200028
:10113c0001002000d30007000080fa000000060028
:10114c000400fa00100798000040eb00004f7800f4
:10115c000040eb00004f78000e0037001e0090009e
:10116c00104078000004e000070032001e009000e0
:10117c00104078009e0090008100e8001107980054
:10118c00d8ff07000200370000c2b300d5ff0700ec
:10119c001e4fe8001e407800ef4f5000efff360066
:1011ac000080fa00000006000000fa0020c0b30026
:1011bc00adff07000080fa00000006000000fa00f6
:1011cc0010c0b300a8ff07000080fa000000060062
:1011dc000200fa00004f78001e407800ef4f5000dc
:1011ec0004003e001e4078000074a0009eff070023
:1011fc0001003700000000000080fa00000006002b
:10120c000200fa00004f78001e407800ef4f5000ab
:10121c0006003e0001c4b3001ecf40001e40780003
:10122c000074a00090ff07000100370000000000d0
:10123c000080fa00000006000600fa001007980073
:10124c00414798004e409000f04f50000f003e0078
:10125c000040eb00004f7800070037001e009000a4
:10126c00104078009e0090008100e8001107980063
:10127c009cff07001e4fe8004e4090009e407800f7
:10128c0080cf5000f5ff390001003700000000004e
:10129c000080fa00000006000000fa0036ff07008c
:1012ac00bbfc0700000220002008880020a12700ba
:1012bc001008880005e1a8008460a9009460a900ca
:1012cc00c002a90060812000c8fc0700c08120007a
:1012dc0014fd07000028ef000080fa000000060053
:1012ec000000fa00ecff0700a116800000042000ab
:1012fc00008060000000e00008003a000040800020
:10130c00e30f500003003e00004080000000e800a6
:10131c00010037000000eb00004088000040800016
:10132c00e10f500020003200e10f500005003900a1
:10133c00e20f50001d003200e30f50001c00320081
:10134c00e9ff370020048000680060000000e00026
:10135c00150032008460a90020168000004078003f
:10136c00614060000004a200614060000080fb004e
:10137c0061006000211680000100a10001007000d6
:10138c002016880088ff0700208020004dfe0700f3
:10139c00208020006aff07002080200019fe070033
:1013ac002080200066ff0700020037000100370094
:1013bc0000000000ccff37000000fa002c83a900cd
:1013cc002ca3a900000e2000001988002223ef0096
:1013dc0050f02100201988003023ef0021e3a800f1
:1013ec000080fa00000006000000fa002023a8008c
:1013fc000000000000198000610060000000e000a7
:10140c00fcff3200001880000080fa00000006008b
:10141c000200fa00004f78001e407800f04f500098
:10142c0005003e0021e3a9001e80fb004019880046
:10143c0021e3a80001003700000000000080fa0042
:04144c000000060096
:020000040000fa
:101450001608000010000000020000000203010056
:101460000201000001090000020200000105050060
:10147000000000000208000014000000000000004e
:101480000008000002000000000000000000000052
:020000040000fa
:10149000f03fb1000180b10006003500ee03090005
:1014a00000000000403fb1000180b100fbff3d00a3
:1014b0001000b000203fb00002003500008009009d
:0814c00000000000000006001e
:020000040000fa
:020000040002f8
:04aff8009ff90000bd
:020000040000fa
:020000040002f8
:04affc007f3f000093
:00000001FF
