:020000040000fa
:080000000002040000000000f2
:020000040000fa
:04000800cc02000026
:020000040000fa
:04000c00cc02000022
:020000040000fa
:04001000cc0200001e
:020000040000fa
:04001400cc0200001a
:020000040000fa
:04001800cc02000016
:020000040000fa
:04001c00cc02000012
:020000040000fa
:04002000cc0200000e
:020000040000fa
:04002400cc0200000a
:020000040000fa
:04002800cc02000006
:020000040000fa
:04002c00cc02000002
:020000040000fa
:04003000cc020000fe
:020000040000fa
:04003400cc020000fa
:020000040000fa
:04003800cc020000f6
:020000040000fa
:04003c00cc020000f2
:020000040000fa
:04004000cc020000ee
:020000040000fa
:04004400cc020000ea
:020000040000fa
:04004800cc020000e6
:020000040000fa
:04004c00cc020000e2
:020000040000fa
:04005000cc020000de
:020000040000fa
:04005400cc020000da
:020000040000fa
:04005800cc020000d6
:020000040000fa
:04005c00cc020000d2
:020000040000fa
:04006000cc020000ce
:020000040000fa
:04006400cc020000ca
:020000040000fa
:04006800cc020000c6
:020000040000fa
:04006c00cc020000c2
:020000040000fa
:04007000cc020000be
:020000040000fa
:04007400cc020000ba
:020000040000fa
:04007800cc020000b6
:020000040000fa
:04007c00cc020000b2
:020000040000fa
:04008000cc020000ae
:020000040000fa
:04008400cc020000aa
:020000040000fa
:04008800cc020000a6
:020000040000fa
:04008c00cc020000a2
:020000040000fa
:04009000cc0200009e
:020000040000fa
:04009400cc0200009a
:020000040000fa
:04009800cc02000096
:020000040000fa
:04009c00cc02000092
:020000040000fa
:0400a000cc0200008e
:020000040000fa
:0400a400cc0200008a
:020000040000fa
:0400a800cc02000086
:020000040000fa
:0400ac00cc02000082
:020000040000fa
:0400b000cc0200007e
:020000040000fa
:0400b400cc0200007a
:020000040000fa
:0400b800cc02000076
:020000040000fa
:0400bc00cc02000072
:020000040000fa
:0400c000cc0200006e
:020000040000fa
:0400c400cc0200006a
:020000040000fa
:0400c800cc02000066
:020000040000fa
:0400cc00cc02000062
:020000040000fa
:0400d000cc0200005e
:020000040000fa
:0400d400cc0200005a
:020000040000fa
:0400d800cc02000056
:020000040000fa
:0400dc00cc02000052
:020000040000fa
:0400e000cc0200004e
:020000040000fa
:0400e400cc0200004a
:020000040000fa
:0400e800cc02000046
:020000040000fa
:0400ec00cc02000042
:020000040000fa
:0400f000cc0200003e
:020000040000fa
:0400f400cc0200003a
:020000040000fa
:0400f800cc02000036
:020000040000fa
:0400fc00cc02000032
:020000040000fa
:04010000cc0200002d
:020000040000fa
:04010400cc02000029
:020000040000fa
:04010800cc02000025
:020000040000fa
:04010c00cc02000021
:020000040000fa
:04011000cc0200001d
:020000040000fa
:04011400cc02000019
:020000040000fa
:04011800cc02000015
:020000040000fa
:04011c00cc02000011
:020000040000fa
:04012000cc0200000d
:020000040000fa
:04012400cc02000009
:020000040000fa
:04012800cc02000005
:020000040000fa
:04012c00cc02000001
:020000040000fa
:04013000cc020000fd
:020000040000fa
:04013400cc020000f9
:020000040000fa
:04020800cc02000024
:020000040000fa
:04020c00cc02000020
:020000040000fa
:04021000cc0200001c
:020000040000fa
:04021400cc02000018
:020000040000fa
:04021800cc02000014
:020000040000fa
:04021c00cc02000010
:020000040000fa
:04022000cc0200000c
:020000040000fa
:04022400cc02000008
:020000040000fa
:04022800cc02000004
:020000040000fa
:04022c00cc02000000
:020000040000fa
:04023000cc020000fc
:020000040000fa
:04023400cc020000f8
:020000040000fa
:04023800cc020000f4
:020000040000fa
:04023c00cc020000f0
:020000040000fa
:04024000cc020000ec
:020000040000fa
:04024400cc020000e8
:020000040000fa
:04024800cc020000e4
:020000040000fa
:04024c00cc020000e0
:020000040000fa
:04025000cc020000dc
:020000040000fa
:04025400cc020000d8
:020000040000fa
:04025800cc020000d4
:020000040000fa
:04025c00cc020000d0
:020000040000fa
:04026000cc020000cc
:020000040000fa
:04026400cc020000c8
:020000040000fa
:04026800cc020000c4
:020000040000fa
:04026c00cc020000c0
:020000040000fa
:04027000cc020000bc
:020000040000fa
:04027400cc020000b8
:020000040000fa
:04027800cc020000b4
:020000040000fa
:04027c00cc020000b0
:020000040000fa
:04028000cc020000ac
:020000040000fa
:04028400cc020000a8
:020000040000fa
:04028800cc020000a4
:020000040000fa
:04028c00cc020000a0
:020000040000fa
:04029000cc0200009c
:020000040000fa
:04029400cc02000098
:020000040000fa
:04029800cc02000094
:020000040000fa
:04029c00cc02000090
:020000040000fa
:0402a000cc0200008c
:020000040000fa
:0402a400cc02000088
:020000040000fa
:0402a800cc02000084
:020000040000fa
:0402ac00cc02000080
:020000040000fa
:0402b000cc0200007c
:020000040000fa
:0402b400cc02000078
:020000040000fa
:0402b800cc02000074
:020000040000fa
:0402bc00cc02000070
:020000040000fa
:0402c000cc0200006c
:020000040000fa
:0402c400cc02000068
:020000040000fa
:0402c800cc02000064
:020000040000fa
:0402cc00cc02000060
:020000040000fa
:0402d000cc0200005c
:020000040000fa
:0402d400cc02000058
:020000040000fa
:0402d800cc02000054
:020000040000fa
:0402dc00cc02000050
:020000040000fa
:0402e000cc0200004c
:020000040000fa
:0402e400cc02000048
:020000040000fa
:0402e800cc02000044
:020000040000fa
:0402ec00cc02000040
:020000040000fa
:0402f000cc0200003c
:020000040000fa
:0402f400cc02000038
:020000040000fa
:0402f800cc02000034
:020000040000fa
:0402fc00cc02000030
:020000040000fa
:04030000cc0200002b
:020000040000fa
:04030400cc02000027
:020000040000fa
:04030800cc02000023
:020000040000fa
:04030c00cc0200001f
:020000040000fa
:04031000cc0200001b
:020000040000fa
:04031400cc02000017
:020000040000fa
:04031800cc02000013
:020000040000fa
:04031c00cc0200000f
:020000040000fa
:04032000cc0200000b
:020000040000fa
:04032400cc02000007
:020000040000fa
:04032800cc02000003
:020000040000fa
:04032c00cc020000ff
:020000040000fa
:04033000cc020000fb
:020000040000fa
:04033400cc020000f7
:020000040000fa
:100400006fba20000e7f22000e018800000000005d
:10041000000020000000e000020032000001200087
:1004200020028800140007007f0007000000e000a1
:1004300003003a0020bb2300010020000200370027
:100440000000200001002000810f70000100320038
:1004500014000700000020000000e000020032004d
:100460000000020000000000903e020000000000ba
:100470000040da000000fe004440a90040082000cf
:100480000000e0000300320000002000a00188000e
:100490004440a800000006008a1f78008b1f7800e7
:1004a0000000060091018800800478000000eb0045
:1004b0001a003700e284440032a0b4009905ba0063
:1004c000e284440032a0b4009906ba00e2844400f9
:1004d00032a0b4000006eb00476fde00fd07b2005b
:1004e000636ce10003003a00ebff07000000eb0043
:1004f0000a003700606ce10004003a00005deb0088
:100500008b05e900fdff3e00040037006168e10053
:10051000010032000086eb000b00070019c7ba008b
:100520001905ba000e04e00003003a000a00e000da
:10053000e0ff3a0000000600fe07b2009e018800be
:100540008a047800f5ff3700395dba008b05e900b1
:100550000c003200295dba008b05e900080032006a
:100560000c00e00003003a00e284440032a0b40032
:10057000f5ff370019ddba008b05e900faff3a00f4
:100580008904e800e184440032a0b40000000600c1
:1005900000000400000000000040da000000fe003f
:1005a000889fbe0080047800205d80000000e0008d
:1005b00005003a000000eb000e0007000084eb008d
:1005c0000000e00008003500285d80000900e00020
:1005d0000500320009004400060007000000e000aa
:1005e00001003d000084eb00080078004f04be00cd
:1005f00000000600800078000100e00003003a00df
:1006000000002000205d8800000005000080eb0055
:1006100002002000828f500002003e00215d880011
:100620000000eb00000006000000050080007800dc
:100630001000200002022000828f500004003200cf
:10064000e9805000e48f5000010036000000eb000c
:1006500000000600889fbe008a1f78000005780011
:100660000a047800984478000805e8000900fb00b7
:10067000eeff07000000e000f9ff3a00b0c2b3004f
:1006800080cf540005003200d0c2b3008000eb00e0
:1006900080cf540005003a00020037008000eb00d4
:1006a00001003700110020000804e8000000eb0002
:1006b000030037006a02b900020052000003b000d4
:1006c0003801fb0003fd2f0082814100e98f5100ba
:1006d000f8ff36000100e00001003a000000ea00e7
:1006e0004f0578004f04be0000000600c1b2200094
:1006f000310837008001780002003700b1597800d6
:100700000201e9000200e000fcff3a0000000600e0
:100710001800fa00889fbe008a1f78000005780044
:100720000a007800020507000203be000002be00b6
:100730000004be006011b8000400e1000588e1007b
:100740000690e1000798e10010003a000002eb007b
:1007500094bf9f006022b800a4bf9f00b5bf9f0058
:1007600044b92000c4bf9f007e8257009303070056
:100770000000e00005003500fe8257000b00090074
:10078000351d78008a01b10004003700b004200054
:10079000005d88000084eb008084eb000800be0050
:1007a0004f0578004f04be000080fa0000000600ec
:1007b0000000fa0068815700cfb897007b0307005c
:1007c0000080fa000000060031892700810f5000e8
:1007d0000200340001832f0001004000c176200098
:1007e00081014000638161000000eb000e003a00cf
:1007f00042062000110009008201d80001017800a2
:10080000100020000200e00007003a00021920005a
:10081000110009008201d80001f0a7008100ea0060
:100820008100e9004f08de0000000600881f780004
:1008300000037800f6039000e6019000678443000f
:100840006682410072002000110009000282d80077
:100850000102780004045400110009000284d80049
:100860000004780087825100131720008581410021
:10087000110009008281d80081017800e28f5100c7
:1008800002003e000804e800160037000800e000ff
:1008900014003a00e6804200110009008280d8006e
:1008a00058032000e48f50001f003200480320004e
:1008b000e58f50001c003a005600900002192000fd
:1008c000110009000200d8000100e900beff070086
:1008d000580320000000e00013003a004803200005
:1008e0001100370052032000820f54000e003a001e
:1008f000311720008580400073002000110009009e
:100900008380d800e48f500007003200e38f50004e
:1009100004003a0056009000abff07000000e00022
:1009200001003a0018002000080078004f04780009
:10093000000006000f07b000889fbe008a9fbe001f
:100940008c9fbe008e1f78000006be0082047800d7
:10095000f3b79f00e4b79f000004eb008500370069
:10096000194078000004e00002003a0000767c00a4
:100970008a00370051c2b300814f5000030032009b
:1009800000767c000804e8007900370089017800cf
:10099000bec2b30053476f000e87fb000e07e9008d
:1009a0004f77de00010032008301e800a200200042
:1009b00061f82f008f8040000300780083bf9f0004
:1009c000f00207000005be00bf84970019407800c0
:1009d00031c4b3008fb99700814f50000900320035
:1009e00061c4b300814f50000600320071c4b300ef
:1009f000814f50000300320091c5b300814f500079
:100a00000a003a00e00f5500e08f5d0008003a0050
:100a100083816c0003f0a7008301ea008301ea00f0
:100a20004f1dde00cfd5de00010037006055b80055
:100a300051c4b300814f500003003200f1c4b30031
:100a4000814f500001003a008904e8001901fb00c1
:100a50006fb29700ffb1970041f82f008f804000e0
:100a600080f82f000f00400053000700800078003e
:100a70000100e00041003200e00f5500e08f5d0012
:100a8000310032000100780003003700af8097008a
:100a90008100e900a1879f00800078003041780044
:100aa000b3c2b300834f5100f8ff3200d3c2b3008a
:100ab000834f5100f5ff320003c3b300834f510051
:100ac00002003a001004e000f0ff3a006101550016
:100ad000e0815d007fb29700540090000e00e000be
:100ae0000a00320034fa2100840f5000070034005d
:100af000b0c2b30000767c000804e8000205be0026
:100b00002f8197008001eb000a00370044892f00f5
:100b1000840f5000faff3d00d0c2b300f5ff37004c
:100b200000c3b30000767c000804e80061055500ae
:100b3000e0855d00820f5500838f5d000200360066
:100b40008d0f5400f6ff3900088056002f81970062
:100b5000800f510001003600a0879f00080046006a
:100b60002f819700e3fe07002f82970004044400c2
:100b70008904e8008d0f540079ff39000d00e00072
:100b8000050032008d0f540001003a000804e9000e
:100b90000040eb0000767c000004eb0008007800c9
:100ba0004f0778004f06be004f05be004f04be0041
:100bb0000f07b10000000600ec874700889fbe00c9
:100bc0008a9fbe008c9fbe008e1f780080bf9f0052
:100bd0000107780002067800030478008405780095
:100be0006160b9005002b1000180b10052052000df
:100bf000820f5000e08f58000f023e00006001009d
:100c0000d50137000c0237000b0237000a0237000b
:100c100009023700080237000702370006023700d2
:100c200005023700040237000302370002023700d2
:100c30000102370000023700ff013700fe013700d4
:100c4000fd013700fc013700fb013700fa013700d6
:100c5000f9013700f8013700f7013700f6013700d6
:100c6000f5013700f4013700f3013700f2013700d6
:100c700042003700550037005e003700360037006d
:100c8000ed013700e101370075003700bb00370088
:100c9000bc003700e8013700e7013700e601370004
:100ca000df003700e4013700e3013700e2013700dd
:100cb000e1013700e6003700f50037000101370099
:100cc00010013700260137001801370035013700c1
:100cd0005b01370097013700d7013700d601370095
:100ce000d5013700d4013700d3013700d2013700d6
:100cf0001b0037002b003700bc0137004b003700ca
:100d00004c003700cc013700550037002500370074
:100d1000c9013700b5003700c7013700c6013700e9
:100d2000bc003700c0003700c3013700c2003700e5
:100d3000c1013700b0013700c7003700dd003700c0
:100d4000e2003700bc0137000a013700120137000a
:100d5000170137005b01370060a62000ac013700a7
:100d60006800900049a62000e60f50009b013e005d
:100d7000cf80de00e28040009501370068009000df
:100d800049a62000e60f500094013e0072002000aa
:100d9000230020004f82de000200400083004a0052
:100da0008b0137004800900049a62000eb0f50004f
:100db0008a013e00e200200023002000cf82de00f6
:100dc0000200400083804a00810137004800900003
:100dd00049a62000eb0f500080013e00a201200038
:100de000230020004f83de000200400083004b0000
:100df0007701370058029000c076200001002000e3
:100e00006011b800cfa3de000000420081804b00db
:100e100002814b0083814b00440620000500200026
:100e20006033b8005f1807004d00370038009000ad
:100e3000980037008fbc970038049000881f780016
:100e4000e0a82000801f78004106200009007800fb
:100e5000c6090700000f7800e487570077013700c4
:100e6000d8069000c0762000010020006011b80074
:100e7000cfecde000082460081824c0002834c00f1
:100e800083834c00c4b79f00d5b79f00e6b79f008f
:100e9000f7b79f0078009000e20f500011003c006f
:100ea0000800780061fe0700e10f500020003200ca
:100eb0004fb09700dfb097006fb19700ffb1970078
:100ec00061005000e080580060015900e081590045
:100ed000c0b79f00d1b79f00e2b79f00f3b79f0054
:100ee0001300370081162000810f500010003400dd
:100ef000080078004dfe0700e10f50000c003a009a
:100f00004fb29700dfb297006fb39700ffb397001f
:100f100061024200e0824a0060034b00e0834b0024
:100f2000c4b79f00d5b79f00e6b79f00f7b79f00f3
:100f30004000200071062000810f560012013a0087
:100f400044062000050020006033b8004fb0970031
:100f5000dfb097006fb19700ffb19700411807000d
:100f60000205be000004be00c8b79f00d9b79f00ad
:100f7000eab79f00fbb79f004c00370028009000a5
:100f800044003700280090006104b900614db900a9
:100f9000c8b79f00d9b79f00eab79f00fbb79f0073
:100fa000e00f5400e08f5c00e00f5d00e08f5d001b
:100fb000ed00320020002000c400200005002000c9
:100fc0006033b8000440e10005c8e10006d0e1004c
:100fd00007d8e100ec0034006c045400e0845c00ad
:100fe00060055d00e0855d009000370078009000ae
:100ff0000000e8006104b900614db900c8b79f0066
:10100000d9b79f00eab79f00fbb79f0030002000d0
:10101000dd003700480090000000e8001d003700a8
:10102000180090005000370010002000000f7800da
:1010300079a820000101370028009000eb0f500034
:10104000e1003c006002200021002000e0003700a9
:1010500080a72000ee00370008007800b4020700e7
:10106000180e9000a80e90004fecde000c0050000f
:101070008d8058000801590088815900c0b79f0031
:10108000d1b79f00e2b79f00f3b79f004000370041
:10109000180078006102b900612bb900c4b79f0045
:1010a000d5b79f00e6b79f00f7b79f00200020004c
:1010b000b500370010002000000f780099a820002c
:1010c000de003700e0a72000d1003700e8009000e4
:1010d0001000200078002000090020006055b800b2
:1010e000c8b79f00d9b79f00eab79f00fbb79f0022
:1010f0000100e000a4003200610ab900612bb900d0
:101100009d0037007800900067004000e8009000e4
:101110000100500072002000110009000280d80078
:101120006104b8006055b8008fff37007800900068
:1011300067024000e8009000e68040007200200056
:10114000110009008280d80001005200110009003e
:101150000280d8006102b8006033b800cfff3700ca
:1011600008007800b1fd07006104b900614db900c5
:101170007dff3700680090006102b900612bb90063
:10118000c4b79f00d5b79f00e6b79f00f7b79f0091
:10119000100020007c003700900220002100200079
:1011a00097003700a00220002100200094003700a3
:1011b00058029000c0762000010020006011b800a5
:1011c000cfa2de000000420081804a0002814a0076
:1011d00083814a0044062000050020006033b800e7
:1011e000a01707000205be000004be00c0b79f00a4
:1011f000d1b79f00e2b79f00f3b79f002000200007
:10120000e00f5400e08f5c00e00f5d00e08f5d00b8
:101210005d003d006022b8006033b8000804520051
:1012200089845a000a055b008b855b00c8b79f0064
:10123000d9b79f00eab79f00fbb79f005200370065
:10124000d8059000c0762000010020006011b80091
:101250004fdcde000082450081024c0002034c009e
:1012600083034c00c4b79f00d5b79f00e6b79f002b
:10127000f7b79f0040002000f8702200090020000e
:101280006055b8000820e10009a8e1000ab0e100bb
:101290000bb8e1003c0034008fbc9700849fbe0077
:1012a000869fbe0020a92000801f780041062000f4
:1012b00009007800ad080700000f7800ea875700a2
:1012c0005e003700080890000000e0001c003500b8
:1012d00018089000a808900002e1200003002000f8
:1012e00043140700310507008fbc9700c20320009c
:1012f000110009000200d800801f78001808900033
:10130000a808900002e1200003002000c913070094
:10131000809fbe0080a92000801f78004106200029
:101320000900780091080700000f7800e88757004f
:1013300042003700080890000000e00003003d0074
:10134000000feb00b9a820003c003700080078002f
:10135000870407002000370010002000000f7800ed
:10136000c9a820003500370020002000c40020005c
:10137000050020006033b800c4b79f00d5b79f00b8
:10138000e6b79f00f7b79f008fbc97004fb297005a
:10139000dfb297006fb39700ffb39700849fbe0042
:1013a000869fbe00801f780020aa2000801f780042
:1013b00041062000090078006c080700000f780043
:1013c000ec8757001d00370070022000210020002c
:1013d0000b017800330707008004780009007800cb
:1013e0001f000700000f7800140037008002200063
:1013f0002100200002003700b00220002100200060
:101400000b0178002707070001003700f0a6200035
:101410008fbc97000b0278008801780000017800eb
:10142000410620000900780042fd0700000f780007
:101430000000e00001003a008004eb0009007800a1
:101440004f0778004f06be004f05be004f04be0098
:10145000cf00b10000000600f45b800035fd3700ce
:1014600080007800040037003104e00002003a00f8
:101470000000510000000600010178000108a300ef
:10148000f9ff3a008101780031017800f4ef2f0074
:10149000020242000281ea00020162000408280000
:1014a00004016100f7ff3200830078000101780039
:1014b0003104e000fdff3a0000005100000006008a
:1014c0004400fa00889fbe008a1f78000004be0016
:1014d0000205780094bf9f00a5bf9f00b6bf9f0084
:1014e000c7bf9f000000eb00c09f9f00a8af9f00f8
:1014f000d89f9f000080eb00b0af9f006022b80033
:101500006033b80060fb2f000f0040005a0707004f
:101510001fba9700afba97003fbb9700cfbb9700a9
:10152000120020008a00780060fb2f000f004000ae
:10153000c30407000900e000060032003fb2970034
:10154000afaa970004824200df9a9700050252007a
:10155000840c44004f0578004f04be000080fa0060
:1015600000000600f4ff2f00f5ff2f000403be006b
:10157000d3ff37006022b8000600200007002800d3
:10158000cfff3700f4ff2f00f5ff2f006033b800c6
:10159000cbff370004002000050028006033b800ae
:1015a000c7ff3700f3ff3700eeff370082017800f6
:1015b00001017800f1ff2700f20737006f02b00049
:1015c000889fbe008a9fbe008c9fbe008e1f780041
:1015d000b0b79f00c1b79f00d2b79f00e3b79f008d
:1015e0000407780008002000092824001a0f2000b2
:1015f0000b00200008044000898448000a054900c7
:101600008b8549000086eb0004b02700d531280007
:10161000261e2000070020000440e10005c8e1006c
:1016200006d0e10007d8e1003a013e0008282a0070
:1016300039742c00faff2f00fbff2f000804400034
:10164000898448000a0549008b8549000418250053
:10165000150020006033b8000800be000a01be007b
:1016600050160700b0b79f00c1b79f00d2b79f00c8
:10167000e3b79f0004182500150020006033b80070
:101680000800be000a01be00761607000004be0076
:10169000e00f5000e08f580010003d0000182500ba
:1016a0001100200008044000898448003fb09700e2
:1016b000cfb097005fb19700efb197006100500085
:1016c000e080580060015900e0815900b0b79f00e8
:1016d000c1b79f00d2b79f00e3b79f003fb297000a
:1016e000cfb297005fb39700efb39700630042005b
:1016f000e0804a0060014b00e0814b007400200054
:10170000050020006033b8005616070080027800fc
:10171000c5af9f000500e00002003d00e7824200e7
:10172000c5af9f0014ab2300250020006033b80034
:101730003fb09700cfb097005fb19700efb197002f
:1017400018160700f0af9f0081b79f0014ab23006d
:10175000250020006033b8003fb09700cfb097005d
:101760005fb19700efb197003e1607000006be007c
:10177000e00f5000e08f58000a003d0010ab23003e
:10178000210020000c0640008d8648007fad9700a8
:101790008fb5970061055500e0855d00faaf9f00a9
:1017a0008bb79f00c2ea2800030020000c00be0097
:1017b000a01207000005be00e40f5000e08f5800a3
:1017c00002003a003a0020000b00200042152700da
:1017d000f3ff2f000a00be00271307000006460093
:1017e00081864e00525b2000030020000c00be00ea
:1017f000901207000002be00f90f5000e08f580061
:1018000002003a008401200005002000b2a42f004d
:10181000f3ff2f000400be00f4b79f0085bf9f00b8
:10182000151307000001460081814e00b2b79f00ea
:10183000c3b79f00d2162000030020003fb09700de
:10184000cfb097007b1207000006be007fb2970062
:101850008fba9700e40f5000e08f580002003a0062
:101860003c0020000d00200032e92f00f3ff2f0084
:101870000c00be00f4b79f0085bf9f00fe1207005a
:101880003fb39700cfb397000003430081834b0021
:10189000d6af9f00e7af9f000000eb007fb297003c
:1018a0008fba9700e00f5600e08f5e0009003a0003
:1018b00010002000e00f5200e08f5a0005003a00af
:1018c0000a80750000f0a7000000ea000000e900af
:1018d0004f00de00dfa89700b103b0008080400019
:1018e000b1af9f00c116200080804000bfab9700c1
:1018f000878f500004003d000080530031e92f0025
:1019000081004000b1af9f00920120000300200041
:101910000a00be00f4b79f0085bf9f00d6120700e3
:101920007fb297008fba970004024000858248007a
:101930004228dd00ce20de00810070004220dd0064
:101940000c0640008d8648000c02be004fabde0046
:1019500086037800f4a79f0085af9f0096af9f0095
:10196000a7af9f007fab97008fb397000600be0024
:101970004f89de0082017800041920000500200054
:101980006033b800e51507007fa297008faa970083
:101990001fab9700afab97000002420081824a0064
:1019a00002034b0083834b00b4b79f00c5b79f0071
:1019b000d6b79f00e7b79f00f0b720000005eb0007
:1019c0005fa99700efa997008a007800030037000d
:1019d00004015100858159008100e8005002fb009c
:1019e000cfa2de00820f5200838f5a00f8ff34002e
:1019f000d2af9f00e3af9f0001057800e90f5500cb
:101a00000d0034006c0555003fb09700cfb0970033
:101a10005fb19700efb1970061004000e08048009f
:101a200060014900e0814900b0b79f00c1b79f0045
:101a3000d2b79f00e3b79f003fb29700cfb29700a5
:101a40005fb39700efb39700400628000100200025
:101a50006011b8000002420081824a0002034b007c
:101a600083834b00f4af9f0085b79f0096b79f001c
:101a7000a7b79f000086eb00f0ff2f0001002000b9
:101a80006011b8000020e10001a8e10002b0e1000f
:101a900003b8e1001f003e003fb097004006b000d1
:101aa000500798008a80e80041079800dfa8970057
:101ab0000106e8003c0798004fa9970062079800cc
:101ac000bfa997007307980002e1200003002000df
:101ad0000800be00d711070020079800c2032000ad
:101ae000030020000800be00d2110700c20320003e
:101af000030020003e12070010079800c2032000d8
:101b0000030020000800be0039120700000f780013
:101b10000006eb000c0078004f0778004f06be006f
:101b20004f05be004f04be006f02b100000006006a
:101b30001a00fa00889fbe008a1f7800000578000e
:101b40005a0090006102b900612bb900d4b79f0020
:101b5000e5b79f00f6b79f0087bf9f004a0490003b
:101b6000eb0f540016003600c400200011000900dd
:101b70000404d80001047800000278000800e000a6
:101b800002003d000402e9006c0444005fb09700cd
:101b9000efb097007fb197008fb99700cfa2de001a
:101ba0000000420081804a0002814a0083814a008d
:101bb000d0b79f00e1b79f00f2b79f0083bf9f009f
:101bc00004fe2f000f0242005fb09700efb09700b5
:101bd0007fb197008fb997006b02070090b79f0005
:101be000a1b79f00b2b79f00c3b79f008fb0970007
:101bf000080078008b0607000004be002a00900051
:101c0000cf80de006109b90004e12000050020005a
:101c10006033b80041150700d0b79f00e1b79f00bf
:101c2000f2b79f0083bf9f001a009000cf80de00b4
:101c30006109b900c4032000050020006033b8002a
:101c4000361507005fb29700efb297007fb3970099
:101c50008fbb97000002420081824a0002034b00c2
:101c600083834b0094bf9f00a5bf9f00b6bf9f001a
:101c7000c7bf9f001a007800cf80de00040240003a
:101c8000858248000683480087834800d4b79f00b8
:101c9000e5b79f00f6b79f0087bf9f003a0090000e
:101ca0000000e900cf80de006109b90004182500ba
:101cb000150020006033b800181507005fb29700c8
:101cc000efb297007fb397008fbb970000024200ee
:101cd00081824a0002034b0083834b0094bf9f0024
:101ce000a5bf9f00b6bf9f00c7bf9f001fb0970052
:101cf000afb097003fb19700cfb19700000042000e
:101d000081804a0002014b0083814b00d0b79f00c5
:101d1000e1b79f00f2b79f0083bf9f004fcdde0069
:101d20000000440081804c0002014d0083014d0001
:101d30004f0578004f04be000080fa000000060046
:101d4000800078000000eb00030037006a02b90051
:101d5000040041008308e800910178001301fb00b2
:101d60000203b100e90f5100f8ff36000000060041
:101d7000889fbe008a9fbe0000047800180078008b
:101d800090407800d2c2b30082cf500003003a00e6
:101d9000000ce8001a002000050037000005eb00e9
:101da000b2c2b30082cf500001003a00000ce8003c
:101db00008007800e2ff070001e120000180b9007f
:101dc000800478001800780090457800a1c3b30023
:101dd00081cf55000d003a00000ce80008007800a3
:101de000d7ff0700c10320000180b90080844400b0
:101df0001800780090cf150004003a00000ce800ad
:101e000008007800ceff0700808444000a00e0004c
:101e1000010032008904ea00090078004f05be0085
:101e20004f04be0000000600889fbe000004be00f4
:101e3000180078009000fb00810c7800d20420008c
:101e4000828f50000a003200a2042000828f5000ce
:101e500002003a00000ce80001003700800ceb00a3
:101e600008007800b6ff0700900498000c003700c7
:101e7000000ce80008007800b1ff0700900498000b
:101e8000180ce80008007800adff0700a0049800d7
:101e9000180ce80008007800a9ff0700b0049800bb
:101ea00018007800f1c2b30090cf100004003a008f
:101eb000000ce80008007800adff070001003700c3
:101ec00000c22100c00498004f04be0000000600bc
:101ed00011017800c3c3b30092cf11000300320098
:101ee000800178000001eb00110037008208e80053
:101ef000000278000001eb0002003700055a78006c
:101f00000201e80091017800e3427900e6c3b300e2
:101f100086cf520002003200e60f5100f7ff3a0070
:101f20008308e8000c003700845978000201e800bb
:101f30001102780064427900844278000554a000c0
:101f40008502fb001506b100f98f520002003e0029
:101f5000e60f5100f4ff3a00910841008040eb0089
:101f60000170790000000600e20f500002003a0004
:101f70007c804000000006000000e90051ad200018
:101f80000088de00610060007e0040000000060066
:101f90000200fa00881f7800c0b82000e0bf9f0050
:101fa000805c80000000e00054003a00905c8000fb
:101fb000e30f50000e003e0000004000905c8800df
:101fc000e30f500002003e0040002000905c8800bb
:101fd00020002100915c8000808f500001003600bd
:101fe000905c8800905c800060040700805c880042
:101ff000805c80000000e00003003200420020000e
:10200000efb89700bbf907000004eb00a855880063
:10201000e480570060ab2000adff070060ab2000fc
:10202000805588006480570051ff0700cf80de0094
:102030005055880061558800e4805700d0ab2000df
:10204000a3ff0700d0ab2000905588001004e000eb
:102050001600320010002000705588006fb89700fd
:1020600010407800b1c2b300814f50000700320029
:10207000d1c2b300814f5000040032000000fb00c9
:102080000003b100e90f500003003e0064805700d8
:1020900037ff070003003700001f2f00a1aa200010
:1020a0001100400020568800020037007855880053
:1020b000285688006fb89700c1c2b30090cf1000b7
:1020c00005003a000000e800e0bf9f0061ac20007e
:1020d0006480570054ff07006fb89700c1c2b30077
:1020e00090cf100005003a000000e800e0bf9f001c
:1020f00001ad2000648057004bff07004f047800bb
:102100000080fa00000006000a00fa00889fbe0066
:102110008a9fbe000004780001007800cf80de00b6
:102120006109b900728257001701070080bf9f0044
:1021300091bf9f00a2bf9f00b3bf9f00980078008f
:1021400098049000d0042000808f50000c003200d2
:1021500009007800a2042000828f500029003a0074
:10216000b1032000818f540003003400ffb29700b8
:102170000500e00023003a000900e90021003700d3
:1021800028059000b80590000900e900ffb097000d
:10219000240507000fba97009fba97002fbb97003e
:1021a000bfbb97004f89de000402400085824800d3
:1021b000060349008703490084bf9f0095bf9f0025
:1021c000a6bf9f00b7bf9f000b00e00001003d00cd
:1021d000e7854500e50f550007003a00ffb097007e
:1021e0000900780060ff0700fc804500808f5000e8
:1021f000010035004a0020000a00e9006700b9002c
:1022000000804500cf80de0002182500130020006a
:10221000991007000fba97009fba97002fbb97003d
:10222000bfbb9700cf8cde000402400085824800cf
:1022300006834c0087834c0084bf9f0095bf9f009e
:10224000a6bf9f00b7bf9f00480490000fba970039
:102250009fba97002fbb9700bfbb9700cfc4de008b
:102260000400440085804c0006814c0087814c00ae
:102270004f05be004f04be000080fa0000000600bb
:10228000fc874700889fbe008a9fbe008c9fbe00cf
:102290008e1f78000205be000004be0090b79f00ac
:1022a000a1b79f00b2b79f00c3b79f00c4af9f0004
:1022b00085067800060778000706780034ff0700d7
:1022c000705580000000e000820032008455280034
:1022d000151e20006033b8000800be000a01be00d1
:1022e000301307000205be000004be006804b00001
:1022f0000980b0000a80b0000b80b00004003700f5
:1023000061045400e0845c0060055d00e0855d00d0
:102310000002eb000800be000a01be009a000700a0
:102320001fb29700afb297003fb39700cfb39700ab
:102330000400e1000588e1000690e1000798e10053
:10234000efff3c00d8af9f00e9af9f00faaf9f00be
:102350008bb79f0004003700d8af9f00e9af9f0004
:10236000faaf9f008bb79f005fa89700efa8970078
:102370007fa997008fb1970061044000e084480076
:1023800060054900e08549000002eb000800be003e
:102390000a01be007c0007001fb29700afb2970091
:1023a0003fb39700cfb397000400e1000588e10038
:1023b0000690e1000798e100e7ff35005fac970069
:1023c000efac97007fad97008fb59700880078003d
:1023d00060ac20004cff07000203be000002be00fc
:1023e0008800780000ad2000d4b79f00e5b79f00bb
:1023f000f6b79f0087bf9f0043ff07005fb29700bb
:10240000efb297007fb397008fbb97004fac970058
:102410000800e0000d003a00585580006955800022
:102420004fcdde000402440085824c0006034d00bf
:1024300087034d0028568000cfc5de000000440011
:1024400081804d0002814d0083814d000020e1001c
:1024500001a8e10002b0e10003b8e1000f003d0077
:102460001fb49700afb497003fb59700cfb5970062
:102470000440e10005c8e10006d0e10007d8e10012
:10248000140035000040e10001c8e10002d0e10085
:1024900003d8e1001f0035000e0037001fb497007d
:1024a000afb497003fb59700cfb597000040e1006b
:1024b00001c8e10002d0e10003d8e10015003500b9
:1024c0000440e10005c8e10006d0e10007d8e100c2
:1024d00010003d00800eeb005055800061558000db
:1024e00060001000e0801800008fbe000c00e000cb
:1024f00004003200205680000000ea00cf80de0099
:10250000008ebe008a5580008fac97008a0c780040
:102510001000370010002000800e78002056800048
:102520000000ea00cf80de00008fbe000c00e0005b
:102530000500320050558000615580006000100099
:10254000e0801800008ebe00905580008fad97008f
:10255000800d78004f0778004f06be004f05be0083
:102560004f04be00cf01b1000000060088fe370016
:10257000881f7800300c900085fe07000800780066
:102580004f04780000000600e4874700889fbe00e3
:102590008a9fbe008c9fbe008e1f78000205be0081
:1025a0000004be0004077800a008200001002000fd
:1025b0006011b8000040e10001c8e10002d0e10074
:1025c00003d8e1001e003c00c1fb2f0088804000c2
:1025d0004288de00e380600006003a000000e90067
:1025e0000e00e0000600320011002000010f78000c
:1025f000030037000e00e00001003200000feb0086
:10260000cf80de0002182500130020009a0f07007b
:102610000006be00a0fb2f0008004000cf80de00b7
:1026200002382300131e2000930f07000c00400007
:102630008d8048004f89de00820178005500370008
:102640000e00e00002003a008ebf9f007087570026
:10265000cdf92f00888646000219200011000900dc
:102660008206d800800678000800be000a01be007d
:102670004006b1000180b1000280b1000380b100ca
:1026800004192000050020006033b800751207000f
:102690000000e00005003a0010002000000f780064
:1026a0008000eb00010678001c003700710c200050
:1026b000810f500009003400b1122000810f50003a
:1026c00003003400c012b1003c00200009003700b4
:1026d000800cb1002c002000060037000006eb0043
:1026e00031062000810f5000070034004006b10081
:1026f0001c0020000000e00003003a00000f7800fa
:102700008000eb0005003700c200de0063006000bf
:102710000000e9004f00de00000f780012062000e4
:1027200002e9b9009e0651000187460004382300e3
:10273000151e20006033b8000800be000a01be006c
:10274000761207000870270069c72700faff2f00dc
:10275000fbff2f0008044000898448000a05490057
:102760008b8549007860b90000004700cf80de000b
:102770006109b90004182500150020006033b80075
:10278000661207000000440081804c0002014d00e9
:1027900083814d004f0778004f06be004f05be00f5
:1027a0004f04be004f00b1000000060000f0a7007b
:1027b0000000ea0000000600881f7800010478008d
:1027c0001002be006033b8000400be000601be0067
:1027d0000802780079fb07000000e00004003d00db
:1027e000b0042000005d88000004eb000700370003
:1027f0000000eb00000c98006033b800160c980045
:10280000270c980080b92000300c98000800780050
:102810004f047800000006008000780010002000bf
:1028200002022000828f500004003200e980500034
:10283000e48f5000010036000000eb0000000600ad
:102840006f02b000889fbe008a9fbe008c9fbe00b2
:102850008e1f780000067800010778008204780057
:10286000d4af9f00e5af9f00f6af9f0087b79f00f2
:1028700040022000800f57007d003e00e10f57000e
:102880007b0032007c089000bc109000810f50004b
:1028900003003100b086fb00700e98000300370083
:1028a0000c00780099020700800678000d0078007f
:1028b000d9ff07000000e000f2ff3a00b00220005c
:1028c000808f5600050032008002eb0085af9f002c
:1028d000d0022000808f560010003a00dd82b20046
:1028e0000df0a7008d06ea008d06e900cfeede00b0
:1028f0008daf9f007c089000bc109000810f5000ad
:1029000003003100b086fb00700e98000300370012
:102910000c0078007d020700800678000e00e000c1
:1029200002003200f00f570042003a00000320007e
:10293000808f56003c003a007c089000bc1090004c
:10294000810f500003003100b086fb00700e98002c
:10295000030037000c0078006c0207008006780046
:102960008d0078000150a00080072000808f50006b
:102970002a003a007c089000bc109000810f5000a3
:1029800003003100b086fb00700e98000300370092
:102990000c0078005d020700800678004096200059
:1029a0006d4078000e012000ef4f50008d00360082
:1029b0003c1090000000e00003003200fc08900092
:1029c0008100e900710e98000900e0000c0032005f
:1029d0006022b8006033b800d4af9f00e5af9f001d
:1029e000f6af9f0087b79f000000e000a101320012
:1029f0007c0890000000e900700e98009d013700ef
:102a00006022b8006033b8000c0078001a0207009a
:102a10006000b8006011b800920137000e00e000bd
:102a20009e013200170037000e00e00001003a005e
:102a3000ae002000409620006d4078000080fb0032
:102a40008e0f50000f0039003c1090000000e00095
:102a5000030032007c0890000000e900700e98002e
:102a60006022b8006033b8000c0078000202070052
:102a700060012000005d88006022b8006033b8006b
:102a800071013700ea0f570056003a000004eb00ce
:102a90000d0078000d0037006a44b90008004000be
:102aa00008fd2f0000044400fc0890003c1090003a
:102ab000808f5000030031003180fb00710e9800c0
:102ac000020037000c0078001002070001fd2f0003
:102ad00080804000e98f500003003e008199210072
:102ae000810f5400ecff3600800678008004eb0074
:102af0006055b800120037001faa9700afaa9700d0
:102b00003fab9700cfab97000004420081844a009e
:102b100002054b0083854b007c089000bc109000a0
:102b2000810f500003003100b086fb00700e98004a
:102b3000030037000c007800f401070080067800dd
:102b400005fd2f008582460095af9f00e98f52005a
:102b500009013e0090992900919929009299290034
:102b6000939921000040e10001c8e10002d0e1009a
:102b700003d8e100db003e00a40020000500200097
:102b80006033b8000800be000a01be0063110700f0
:102b90001faa97008002eb006033b80094af9f003b
:102ba000a5af9f00b6af9f00c7af9f000482ea00a9
:102bb0008582ea000683ea008783ea00d4b79f0093
:102bc000e5b79f00f6b79f0087bf9f000400e100b4
:102bd0000588e1000690e1000798e100c6ff360095
:102be000c00037000e00e9000e0060000300320054
:102bf0000004eb000d007800650037007770b90025
:102c00004500de0067006000a1952000e1407800eb
:102c10008100fb000004eb000d00780081047800c7
:102c20000b0037000944dd0001047400fc0890002b
:102c30003c109000808f5000030031003180fb0079
:102c4000710e9800020037000c007800af010700f9
:102c500041962000e0c078008180fb008e8f5000fc
:102c600003003100f27f2000820f5400edff360098
:102c700080067800890078008004eb006055b80079
:102c8000f4ff2f00f5ff2f000403be0001007800c1
:102c90000000e900050033008703d1000683d3005c
:102ca0008582d3000482d300f9ff37000d0078003d
:102cb00081067800200037000d0178000201e9004c
:102cc000050033000804d0008984d2000a85d200b0
:102cd0008b85d200f9ff37000180fb008000eb00fc
:102ce0006011b80008047000898470000a05710042
:102cf0008b857100fc0890003c109000808f500084
:102d0000030031003180fb00710e98000a0037008b
:102d10000c00780094b79f00a5b79f00b6b79f003e
:102d2000c7b79f0079010700cfb397003fb3970063
:102d3000afb297001fb2970041962000e0c0780024
:102d40000181fb008e0f5100600031000440e10062
:102d500005c8e10006d0e10007d8e100d6ff360043
:102d60005a0037000ec4b90008844000fc089000e7
:102d70003c109000808f5000030031003180fb0038
:102d8000710e9800020037000c0078005f01070008
:102d900041962000e0c078008180fb008e8f5000bb
:102da00003003100b2712000820f5400edff3600a5
:102db000800678008004eb006055b80098af9f0053
:102dc000a9af9f00baaf9f00cbaf9f0012003700a2
:102dd0000002440081824c0002034d0083834d00b9
:102de00094af9f00a5af9f00b6af9f00c7af9f00f5
:102df0007c089000bc109000810f5000030031004f
:102e0000b086fb00700e9800030037000c007800bd
:102e10003e01070080067800409620006d40780053
:102e2000e0cf9f00804278000580fb008e0f5000ad
:102e3000280031006174b8006055b8000802be0077
:102e40000a03be00f0ff2f00f1ff2f000001be00bb
:102e5000491007001faa9700afaa97003fab970041
:102e6000cfab97000020e10001a8e10002b0e10033
:102e700003b8e10017003e000802be000a03be00ce
:102e80001fa89700afa897003fa99700cfa9970068
:102e9000a2100700efca97000584fb008004eb0036
:102ea0006055b8000882ea008982ea000a83ea00d5
:102eb0008b83ea000400e1000588e1000690e10050
:102ec0000798e100c2ff3600020037008006780054
:102ed000040037001fac9700afac97003fad9700e0
:102ee000cfad9700409620006d4078000080fb0039
:102ef0008e0f5000200031000d00780009003700cf
:102f0000fc0890003c109000808f500003003100be
:102f10003180fb00710e9800020037000c00780031
:102f2000fa0007004196200060c078000080fb0096
:102f30008e0f5000f2ff390020022000005d880053
:102f40005fab97000608a300070032005fac970054
:102f5000efac97007fad97008fb597008003eb0033
:102f600087af9f00040037005fac9700efac97007d
:102f70007fad97008fb597003c1090000000e000f7
:102f8000030032007c0890000000e900700e9800f9
:102f90005fa89700efa897007fa997008fb19700cf
:102fa0000040e10001c8e10002d0e10003d8e100e7
:102fb0001c0039000008a3000e003a008fa89700fb
:102fc0000100e0000b003a0020022000005d8800b4
:102fd0005faa9700efaa97007fab97008fb3970087
:102fe00061025200e0825a0060035b00e0835b00f4
:102ff000150037005fa89700efa897007fa99700fa
:103000008fb197000040e10001c8e10002d0e1006b
:1030100003d8e1000300360020022000005d880094
:10302000140037008fa89700e18f40000b003a0092
:103030006000b8006011b800080250008982580092
:103040000a0359008b835900d4af9f00e5af9f005e
:10305000f6af9f0087b79f00060037000800be004c
:103060000a01be00d0af9f00e1af9f00f2af9f000a
:1030700083b79f005fa89700efa897007fa99700ec
:103080008fb197004f0778004f06be004f05be0076
:103090004f04be006f02b100000006008e00200049
:1030a000d0fe37000002be0011802000ee0f52005b
:1030b000e08f5a002900320004017800e28f5200ac
:1030c0000e00320003003c00e18f520022003a0063
:1030d00005003700e48f52000e003200e58f5200e9
:1030e0001d003a000f00370001802000e10f510061
:1030f0001a003c007180200014003700018020007d
:1031000010032000800f510014003c00a18020001b
:103110000e003700018020000200e0000f003c009c
:103120000a00370001802000e30f51000b003c0033
:103130006194200005003700010078003104e000b0
:10314000fdff3a000201e9008000e8000200e00013
:10315000f9ff3a00010037000180200001007800eb
:1031600000000600f25b8000ceff37000200fa008c
:10317000889fbe000000e00001003a00100020001f
:103180000004e8000800a100f05c80000000e800f6
:103190000000a100f05c8800000020000000e000ba
:1031a0000f003200e10f540006003600e20f440029
:1031b00005003a00c0002000005d88000000eb0020
:1031c0002a00370028002000080078008cf3070050
:1031d000290020000000e00024003a000100370030
:1031e0008004eb00f05c8000e15c80000080500017
:1031f000800f54001300360008804400d0bf9f00a9
:10320000668057002a010700800078000000eb006c
:103210000100e000150032000100e8000000a100fc
:10322000e15c8000810f500001003200f05c8800fa
:10323000dfb89700010040000000e8000000a10096
:10324000e05c8800f15c80000900e00003003200cf
:1032500001007800081878000100370001007800ac
:103260000884440088804000f15c88004f04be0060
:103270000080fa0000000600889fbe008a9fbe0002
:103280004410980055109800661098007710980028
:10329000f00890002004900001045400cfc4de0028
:1032a000614db90008189800191898002a1898005c
:1032b0003b189800e00f5200e08f5a00e00f5b00cf
:1032c000e08f5b000c0032000014900001045400f9
:1032d000cfc4de00614db9000440e10005c8e10043
:1032e00006d0e10007d8e10003003400048240006a
:1032f00034109800020037008010900031109800c0
:103300004f05be004f04be00000006002800fa0072
:10331000889fbe008a1f780000047800f80890009b
:103320002800900000805000081a9000981a900021
:10333000281b9000b81b9000cf80de0004024000e4
:103340008582480006834800878348004810900023
:10335000d810900068119000f8119000e00f500014
:10336000e08f5800e00f5900e08f5900050032004f
:103370000020e10001a8e10002b0e10003b8e10093
:103380000d003d0008007800d4b79f00e5b79f000e
:10339000f6b79f0087bf9f00b00007008004780049
:1033a0005fb29700efb297007fb397008fbb970093
:1033b0000900e00016003d0078089000a800900089
:1033c000808050004f89de00048240008502490061
:1033d0000603490087034900041c9800151c980047
:1033e000261c9800371c980030149800f0ff2f001e
:1033f000f1ff2f000001be00401498005114980006
:1034000062149800731498008084eb005200370017
:1034100061004200e0804a0060014b00e0814b0007
:1034200090bf9f00a1bf9f00b2bf9f00c3bf9f007e
:1034300048129000d812900068139000f813900082
:1034400094b79f00a5b79f00b6b79f00c7b79f006e
:10345000e00f5200e08f5a00e00f5b00e08f5b004e
:1034600028003200780d9000081190000a015100e8
:103470006112b900612bb900d4af9f00e5af9f0086
:10348000f6af9f0087b79f001fb09700afb09700bf
:103490003fb19700cfb197001fba9700afba97001e
:1034a0003fbb9700cfbb97000400500085805800b9
:1034b000060159008781590090af9f00a1af9f007e
:1034c000b2af9f00c3af9f005faa9700efaa97001b
:1034d0007fab97008fb397000020e10001a8e100c7
:1034e00002b0e10003b8e100060034009fb297008b
:1034f0001fbb9700068152008200450031149800de
:1035000002003700881390003714980028019000bb
:10351000f8089000810151001fba9700afba9700d8
:103520003fbb9700cfbb97004f98de00048241005d
:10353000850248000603480087034800041c9800e1
:10354000151c9800261c9800371c9800828f50008c
:1035500001003e00f9f89f00090078004f0578004f
:103560004f04be000080fa00000006000000fa00d0
:10357000e88157004fb99700020007000080fa0069
:10358000000006000f04b0008e1f780002027800d1
:10359000030178000000e00002003200000778001c
:1035a000020037000efc2f000f0747008002eb00df
:1035b0000100e000010032008102e9000f00780004
:1035c000e003b1001d0009000018eb000080eb00d3
:1035d00090a79f0023102000a3a79f00bea79f00d5
:1035e000c1a79f00d5a79f000100e00003003d0098
:1035f000b1042000015d880007003700004feb0098
:10360000fea79f00eea79f008400780020fc2f00fb
:103610000f004000300007004f0778000f04b10092
:10362000000006000001be004210dd00e1ad2000f8
:10363000008040001000be000300e00006003200e1
:10364000e10f51000400340002182500130020008f
:103650000000410081804900000006000200fa00dd
:10366000889fbe000004780008007800c5020700ab
:103670008084eb000000e00009003a0098119000ff
:1036800012002000e68057000800780003000100c7
:10369000e10f500002003a002ff897008084fb00f1
:1036a000090078004f04be000080fa000000060008
:1036b000900078000000eb000100e00005003500fc
:1036c00001007800b6f30700e10f400001003a0066
:1036d0000000eb00000006000200fa00881f7800de
:1036e00000047800e2bf9f00648157000800780062
:1036f00084020700980090000148a30001003200f6
:103700000080eb004f0478000080fa000000060003
:10371000881f78000004780000082000808f500087
:103720001700350010082000808f50000b00340077
:1037300030082000808f500011003a00920078007d
:1037400068805000000978003002be002003be00ef
:10375000049cbe000694be00070037009202780069
:1037600064805200000978001000be00c00a070003
:10377000009cbe000294be00100020000100370033
:103780000000eb004f0478000000060084082000d1
:10379000848f50001d0032000d003c0014082000f2
:1037a000848f50002700320002003c0004082000f3
:1037b0000400370024082000848f500034003200b9
:1037c00044082000848f500043003a003600370040
:1037d000040a2000848f50002700320004003c00bf
:1037e00004092000848f50003b003a002800370075
:1037f000020c2000828f50002f003200020f2000a8
:10380000828f500034003a002b0037009380e9008b
:103810000200e00005003200810978001102fb007f
:10382000cfa2de00612bb9002800370081097800a3
:10383000114278000482fb008002eb006033b80084
:103840002200370013027800e40052000200e0007a
:1038500005003200810978001102be004fabde0086
:103860008603780019003700810978001102be0034
:103870006033b800150037009380e90081097800b3
:1038800011027800cfa2de00612bb9000f003700d3
:1038900093027800e8805200810978003102be006e
:1038a0002103be00090037009380e9000200e00018
:1038b00002003200f1ff37009380e90081097800af
:1038c000110278008002eb006033b8000498be005b
:1038d0000690be001000050000000500440820000e
:1038e000848f50002500320008003c00140820009e
:1038f000848f50001400320024082000848f500070
:1039000024003200040820000c00370004092000c5
:10391000848f50001f00320004003c008408200007
:10392000848f500024003a000e003700040a200063
:10393000848f500011003200040c2000848f50004e
:103940001d003a000d0037009380e90081097800de
:103950009100780001087800cf91de008288be00d7
:10396000140037009380e900810978009100780005
:1039700001087800824878000e0037009380e90043
:1039800081097800910078000108780082087800a9
:10399000080037009380e9008109780091007800e1
:1039a000010878006112b900612bb9008498be004b
:1039b0008690be001000050000000500889fbe0034
:1039c000000478004800900082047800808f540042
:1039d000010036008004780009017800580090004a
:1039e00044f307005800900009004000500498007c
:1039f000c800900089845000490498000048eb00fa
:103a00004f04be0000000600f2874700889fbe00fa
:103a10008a9fbe008c9fbe008e1f780080047800b5
:103a200001057800020478008305780061076200d0
:103a300002003a008b0f540008003900080178009a
:103a40008a00780009007800dcff07008b0f540023
:103a500002003900880578001e00370008865500ee
:103a60000c017800f00f5600010036000201200022
:103a7000010220007e805700e70107008c067800d5
:103a80000500370002012000fe8057000900780081
:103a9000caff0700f0865600ef8f5600f9ff3e0080
:103aa0004461de0000ff2f000091b90002014600d2
:103ab000fe80570009007800c0ff07000e00e000fc
:103ac00004003a00080178008a00780009007800b4
:103ad000baff07000b0078004f0778004f06be00c2
:103ae0004f05be004f04be002f01b10000000600cc
:103af000000005000000050000000500000178003e
:103b00000040eb008080fb008180400063b120001a
:103b100063c278000404e00003003a0070b12000a2
:103b200060c078000000060092017800934f5200b8
:103b300004003a0070b1200060c078000309e8007a
:103b4000010037000040e800ea4f5000edff36006a
:103b500000000600f6874700889fbe008a9fbe00cf
:103b60008c9fbe008e1f780000057800010478004d
:103b700083057800040678000000eb00c0b79f00c2
:103b80008080eb00d1b79f00e0b79f00f2b79f00a5
:103b90000008200080bf9f00980078000100780096
:103ba0008004eb00010037008904e8003041780010
:103bb0000204e0000300320053c2b300834f5100ff
:103bc000f9ff3a000900e000040032000901780022
:103bd0000a00780079ff0700188c44001807780065
:103be00050c2b3009e4f10003f013a000e07e8009c
:103bf0000e0c780010003700cfb097000100a00035
:103c00000b003700cfb097000110a000080037006c
:103c1000cfb097000120a00005003700cfb097007b
:103c20000130a00002003700cfb097000140a00093
:103c3000c1b79f00000ce8001800780090407800a1
:103c4000b2c2b30082cf5000f1ff320007003c0047
:103c500002c2b30082cf5000f0ff320032c2b30084
:103c600082cf500007003a00efff3700d2c2b30006
:103c700082cf5000e0ff320002c3b30082cf500079
:103c8000e0ff3200a2c2b30082cf50000d003a0024
:103c9000000ce8001c80e900000e7800100078009d
:103ca000e0b79f000000e0000f003d00cfb097009c
:103cb0000100a200c1b79f000000ea00e0b79f002a
:103cc0000900370063f20700e0b79f0001003700ea
:103cd000000ce800180078009000fb000103b10020
:103ce000e98f5000faff36004fb097000008a3009c
:103cf000020032000010a100c0b79f001800780039
:103d0000e1c2b30090cf100016003a008000eb0033
:103d1000d1b79f000000e800000c7800a1c2b300fa
:103d200090cf100006003a00000ce8001c80e9006b
:103d3000000e780010007800d0b79f00090037000f
:103d400044f20700d0b79f0001003700000ce800e4
:103d5000180078009000fb000103b100e98f5000cb
:103d6000faff36000800780064ff070080467800fc
:103d7000180078001000fb008b010700910620005e
:103d8000810f50003800320012003c004106200034
:103d9000810f5000340032000a003c001106200060
:103da000810f50002000320031062000810f5000aa
:103db000a000320051022000810f5000bc003a00e8
:103dc000b400370071062000810f5000b8003c009d
:103dd0008800370001072000810f50005c0032008e
:103de00007003c00e1062000810f50007a003200fd
:103df000f1062000810f5000ad003a003900370075
:103e000051072000810f5000270032008107200059
:103e1000810f50004200320031072000810f500016
:103e2000a3003a008f0037008d80fb000c01780062
:103e300000fe2f000f00400035fe07000000e000ec
:103e4000a800320018007800000ce80090417800cb
:103e500002fe2f000f014100f88057000a00780091
:103e6000590107000e0037008d80fb008c0178009f
:103e70001200200000fe2f000f00400043fe07004c
:103e80000000e00097003200180ce80002fe2f004e
:103e90000f014100f88057000a007800ec0307008a
:103ea00080844400900037008d80fb008c017800f6
:103eb0000001eb0000fe2f000f00400033fe070062
:103ec0000000e00087003200180ce80002fe2f001e
:103ed0000f014100f88057000a007800c30707006f
:103ee000efff37008d80fb008c0178000001eb00b4
:103ef00000fe2f000f00400024fe07000000e0003d
:103f000078003200180ce80002fe2f000f0141007b
:103f1000f88057000a00780002070700e0ff37002a
:103f20008d80fb008c0178000001eb0000fe2f006b
:103f30000f00400015fe07000000e000690032009d
:103f400018007800000ce800904178001c00370051
:103f50008c0178000001eb00010f200000fe2f0013
:103f60000f00400009fe07000000e0005d00320085
:103f7000180ce8000fb097009fb097002fb1970082
:103f8000bfb19700e00f5000e08f5800e00f5900dc
:103f9000e08f590009003a00cfb597006fb4970041
:103fa000e0b020002ef507000b02780088017800b1
:103fb00000017800e1b020004700370083c7b3005c
:103fc00002fe2f000f014100f88057000a00780020
:103fd000af070700b2ff37000b8144008d80fb0064
:103fe0008c01780000fe2f000f0040003bfe070010
:103ff0003c0037008d80fb000c01780000fe2f0094
:104000000f004000c2fd07000000e0003500320054
:1040100018007800000ce8009041780002fe2f00a4
:104020000f014100f88057000a007800e203070002
:104030009bff370000c8b30080cf560029003a002c
:10404000180ce8001c80e900000e78001040780091
:10405000e0df9f0013002000e2fd2f000f01410070
:104060000800370000c8b30080cf56001d003a009a
:10407000180ce8001c80e900000e78008001eb00bd
:1040800010017800f88057000a007800da0607006f
:1040900083ff370000c8b30080cf560011003a00fc
:1040a000180ce8004fb29700efb1970008003700f6
:1040b0000e0c78000000eb00c0b79f00e0b79f0037
:1040c0000080eb00d0b79f000002eb008401780075
:1040d0001200200041b120000a0078004afe0700cb
:1040e0006fff3700180ce800090078004f077800d0
:1040f0004f06be004f05be004f04be006f01b10069
:10410000000006008200fa00889fbe008a1f780027
:104110000005780082047800c13f9f000004eb0096
:10412000100037000902780088017800a2f72f00fc
:104130000f01410081f72f008f8040000a007800b6
:1041400084fe070008004000880f500004003d0076
:10415000b0042000005d88000084eb0004003700fc
:10416000000478004f3897001004e000edff3a009b
:10417000080078004f0578004f04be000080fa0068
:1041800000000600881f7800000478004860900056
:104190008040e90000c0700040649800d8009000a2
:1041a00068009000808f500005003600b80990002c
:1041b0000001eb0082007800080078000300010095
:1041c0000000eb00200c9800600498005004980058
:1041d000980090000118a300030032000140a000e5
:1041e0001104980008003700280190003800900062
:1041f0000000410000149800700c98000000eb00d3
:104200000138a300010032000080eb004f04780069
:1042100000000600c5073700889fbe008a9fbe00c9
:10422000800478000200e0005b003200014078006a
:10423000814c780082814400f1f99f00e20f510027
:104240005500360091449800a1449800e1f99f0080
:10425000d1f99f00e60f51004f003600b14498009d
:10426000c1f99f00e80f51004b0036000905ea0034
:10427000630565000a8444000a055100c1ff2f0050
:10428000010565000080fb008000eb00121020009b
:104290001310200078080700008cbe000a014400bb
:1042a00060b99f0071b99f00e80f55003a003600d1
:1042b00020049800310498004004980051049800ac
:1042c00020b99f0031b99f0040b99f0051b99f00ac
:1042d000f80f550030003600600498007104980013
:1042e000000c9800110c9800200c9800310c9800dc
:1042f000400c9800510c980020b19f0031b19f00f4
:1043000040b19f0051b19f0060b19f0071b19f000b
:1043100000b99f0011b99f00640164007801410059
:1043200002044400020555006011b8000203be00fb
:104330000002be000403be006022b800000072004c
:1043400081807200020173008381730010003700c6
:10435000009cbe000294be004004980051049800e6
:104360006204980073049800000c9800110c9800e7
:10437000220c9800330c9800400c9800510c9800c7
:10438000620c9800730c98000a02b1000802b00099
:10439000ff0f5500eeff3e00090078004f05be00fc
:1043a0004f04be0000000600f1fb2f00808040009b
:1043b000f98f500001003e000050a00000000600f0
:1043c000f9ff3700000006003e00fa00889fbe009b
:1043d0008a9fbe008c9fbe0010079800834678001d
:1043e00011007800400f9800910190004307980059
:1043f00021029000240f9800c1029000050f780060
:10440000b1009000611f98003204be002205be007a
:10441000281f9800391f98004a1f98005b1f9800ba
:104420006022b8006033b8000800be000a01be0078
:10443000760707000000e00009003d000800be000c
:104440000a01be0003f0a200201f9800311f98004f
:10445000421f9800531f9800d0c2b30004003700d9
:10446000ce0890000128a30009003200b0c2b300ba
:104470006e19900000497800ae0990008301e900b0
:10448000330f980014002000540f980010003700dc
:10449000ce0a90000538a3000900320000c2b30024
:1044a0006e1b9000004b7800ae0b90008703e90074
:1044b000370f980018002000580f980004003700ac
:1044c000ae0c9000390f98000005eb005a0f9800d1
:1044d0002e189000be1890004e199000de19900022
:1044e000b8ff0700f4ff2f00f5ff2f00f6ff2f00a5
:1044f000f7ff270004026000858260000603610068
:10450000878361006000b8000200200003ff2700dd
:104510000020e10001a8e10002b0e10003b8e100e1
:104520000c003a008d06fb001d04b100ee1d90004a
:10453000de0890000180450041b42000f98f56004c
:104540000100360081b420000207070080b420007b
:104550002f0237000020e10001a8e10002b0e100d5
:1045600003b8e1000c0036008d06fb001d04b1000d
:104570006e199000de09900003004100c1b42000d4
:10458000f98f56000100360001b52000f106070042
:1045900000b520001e02370000c3b3006e1a900061
:1045a000de0a900000f27a000500e80000014200f7
:1045b0008d00fb00f6fb2f000683400026079800c5
:1045c00081c7b300f90f530001003e0081c5b3005d
:1045d000014978000000e800500f98006022b80000
:1045e0006033b8002e189000be1890004e1990004d
:1045f000de199000050707000000e0005e003200b1
:104600008003eb006044b8000a0020000bff230089
:1046100068079800790798000a0f98001b0f980008
:1046200007067800050037000c06e8006e0c9000c5
:10463000fe0c90000e1590009e1590000802be0022
:104640000a03be000800be000a01be00960707006c
:104650000002be000203be00640f9800750f9800b0
:1046600006179800171798002e189000be18900093
:104670004e199000de199000e40607000000e000eb
:10468000e9ff3d006c0f98002a0037006022b80057
:104690000600200007fe23000800be000a01be003d
:1046a0007b0807006022b8006033b800d706070017
:1046b0000000e00016003a006022b800060020006a
:1046c000073524000800be000a01be00700807007c
:1046d0000004be000205be006022b80006002000f3
:1046e000073524002e189000be1890004e19900037
:1046f000de199000660807000002be000203be003b
:10470000241f9800351f9800461f9800571f9800d7
:104710006022b8000600200007fe23000800be004b
:104720000a01be005a0807000004be000205be00d0
:104730000c06e9000802be000a03be002e18900015
:10474000be1890004e199000de199000af060700c9
:104750000000e000cdff35000800be000a01be00e9
:104760006007980071079800020f9800130f9800d7
:104770006c0f9800090037008000eb00610f980073
:104780006022b8000600200007ff2300640798009d
:1047900075079800060f9800170f9800ce0290003a
:1047a000800120000500e000010035004e0090006f
:1047b0000000e800300798006e049000fe049000ae
:1047c0000e0d90009e0d90006817980079179800c4
:1047d0000a1f98001b1f98002e1c9000be1c900002
:1047e0004e1d9000de1d90000006eb003a003700e1
:1047f0006e129000fe1290000e1b90009e1b900007
:104800000800be000a01be0072070700170b070070
:104810000002be000203be0024179800351798005e
:104820004617980057179800b006070080027800d6
:10483000550798006e129000fe1290000e1b90001b
:104840009e1b90002e109000be1090004e11900004
:10485000de1190000e0807000002be000203be0039
:104860000800be000a01be00090707000004be00e0
:104870000205be006022b8000600200007fb2300ee
:104880006e109000fe1090000e1990009e1990007e
:10489000ff0707000002be000203be006417980075
:1048a00075179800061f9800171f98000c06e8005f
:1048b000ce0290000500e00007003d006022b80035
:1048c0006033b8000800be000a01be004f060700b2
:1048d0000000e000040032003e039000860f560006
:1048e000c3ff3500010037003c0798006022b80084
:1048f00006002000070224006e109000fe109000b9
:104900000e1990009e199000e10707000002be00fa
:104910000203be006417980075179800061f9800e0
:10492000171f98000800be000a01be0037060700e6
:104930000000e0000d0035006e129000fe129000a5
:104940000e1b90009e1b90000800be000a01be00d6
:104950002e0607000000e00011003a00de02900081
:104960000508a300080032000d0037006044b800bd
:104970006055b80068179800791798000a1f9800ca
:104980001b1f9800060037006000b8006011b800d7
:104990006017980071179800021f9800131f980065
:1049a0006e129000fe1290000e1b90009e1b900055
:1049b0002e189000be1890004e199000de1990003d
:1049c000b90607000002be000203be00641798008b
:1049d00075179800061f9800171f980079fe0700aa
:1049e0000203be000002be00f0ff2f00f1ff2f0007
:1049f000f2ff2f00f3ff27000004620081846200b1
:104a00000205630083856300281f9800391f980002
:104a10004a1f98005b1f98006000b8000200200049
:104a200003ff27000040e10001c8e10002d0e100df
:104a300003d8e100bbfe3200be0c90008984e9007f
:104a4000291f98005e0e90008006eb005d0798001d
:104a50002d1798006f0037006e029000fe02900044
:104a60000e0b90009e0b90006e109000fe109000b8
:104a70000e1990009e199000d60607007b0a0700c9
:104a80000004be000205be00180607008000780082
:104a90000100e00006003a002e1090000000e00047
:104aa000030032008d06e8003d0f98003300370008
:104ab0005e0190000200e0000c003a00ae11900090
:104ac0000300e00009003200e0c2b3006e1a90005b
:104ad00000727e000c06e800ae1a90008502e90024
:104ae000251f98001600200056079800ee1b900026
:104af0000c8143000d0078000702780003003700a6
:104b000003c3b300035978000000e9000000e0008f
:104b1000fbff3a00300f9800641f98000d06460016
:104b2000e98f500003003c0000032000010040001a
:104b3000020037007005200001004000ae00900028
:104b4000f98f500006003e00800078000150a00060
:104b50001106b100f98f500001003e0084050700e6
:104b60006e19900000717e000c06e8008d86ea0048
:104b7000ae1990008d814100231f98006e029000b5
:104b8000fe0290000e0b90009e0b90000800be00ed
:104b90000a01be003e0707000002be000203be007d
:104ba0006e109000fe1090000e1990009e1990005b
:104bb000370607000002be000203be00641798001b
:104bc00075179800061f9800171f98006022b800fc
:104bd0000600200007fb23006e009000fe009000fe
:104be0000e0990009e099000290707000004be00ee
:104bf0000205be0068079800790798000a0f980020
:104c00001b0f9800ae1490008904e9002917980042
:104c1000be0e90002e1590000a00ea00be0590001e
:104c20008b0f500004003d009e007800658050000e
:104c3000800f560088ff39005e0190000200e000fe
:104c40001e003a000d00e0007d003400ce0190000f
:104c50000300e0007a0034004e0a90000408a3002c
:104c600077003a00ee1a90008c804200e0c2b30058
:104c7000804878000d0078008501780002c3b300f9
:104c8000826878000000e900fcff3a00631f98008a
:104c90000c8646000c06e8002e1b90000600e9007a
:104ca0000d005000201f980004003700e0c2b30040
:104cb000ee1b900080737e000c06e8006e1c9000d6
:104cc0000c0044000048eb009e0478008900e900d5
:104cd0000041eb0002f478008001eb006e0d9000c3
:104ce0000a00e00003003d000a05ea006a0f980090
:104cf00013002000120020006e0a9000810378004b
:104d00002e1b90006e1c9000800678000900370072
:104d100081037800a5002000110009000502d800d9
:104d20000002be000543b00005f47b000201e9006b
:104d30000603e9008700e9000400e000f4ff3a0000
:104d4000e10f5100f2ff3200261f9800681f980003
:104d50000d00780001024400b2c2b3000300e0007d
:104d600001003200d2c2b300024a78000101e9001a
:104d7000ee1990008280410003c7b3002e0290001c
:104d8000f90f520001003e0003c5b30083487800cc
:104d9000820f560001003d00ee040700ce0a90008d
:104da00063806200e20f500018003a002e1b900052
:104db0000684e9004240a900140034006e189000f7
:104dc000a7f10700800044008100e800ee1b90007e
:104dd000818043008701780002003700e36078009b
:104de0000000e900de0c9000890f5000fbff3d0041
:104df000631f98000980410008017800010320002a
:104e000005fd07000005eb002a0f98006e189000c2
:104e100093f107004e0a9000ae099000000178005f
:104e2000ee1890001e009000f7fa07004f06be0033
:104e30004f05be004f04be000080fa0000000600cf
:104e4000ce0d90000b48a30098ff3a009bff37005f
:104e5000ec874700889fbe008a9fbe008c9fbe00e3
:104e60008e1f780000067800010478001807900073
:104e70002805900098067800cdb79f00b8059000ef
:104e80003202be002203be000400be000601be00c6
:104e90004f18de006011b8008000eb00d0b79f0013
:104ea000e1b79f00f2b79f0083bf9f0080047800a6
:104eb0000900e000060032006000b8006011b80090
:104ec0000402500085825800060359008783590068
:104ed0000e00e000020035000d10a100cdb79f00cc
:104ee0000900e00005003a004fb097000028a30039
:104ef00002003a000038a300020032008a00e900f4
:104f0000010037008a007800f8815700a2002000d5
:104f100008007800620307000900e00003003a007f
:104f2000cfb097000128a300080032000000e9007c
:104f300000814500b1c2b3000900e0000100320069
:104f4000d1c2b30001497800050037000138a30041
:104f5000030032000000e90001c2b300817578004f
:104f6000480190000201e9000001510080804500e5
:104f70004fb297008a0178000c007800a2fa07006f
:104f80009c0090000188a30004003200980090006b
:104f9000810f500001003d00010078004f077800ac
:104fa0004f06be004f05be004f04be00cf00b1004b
:104fb00000000600000006004200fa00889fbe00c4
:104fc0008a9fbe008c9fbe0020079800110f98009a
:104fd000034f980011007800400f98009100900056
:104fe000610f98009e099000a3019000330f980074
:104ff0001e0a900044029000140798009e0a900038
:10500000b5029000052798003204be002205be00bc
:105010006022b8006033b8000800be000a01be007c
:105020007a0407000000e00003003d000bf0a2003e
:10503000d0c2b300040037004e0b90000628a30036
:1050400009003200b0c2b3008e239000804b78007c
:105050003e0890000000e900700f98001100200049
:10506000510f9800100037004e0990000238a3003d
:105070000900320000c2b3008e2190008049780000
:105080003e0a90000402e900740f98001500200009
:10509000550f9800040037003e0b9000760f9800e3
:1050a0008003eb00570f98000800be000a01be0005
:1050b000c0ff0700f4ff2f00f5ff2f00f6ff2f00c1
:1050c000f7ff27000402600085826000060361008c
:1050d000878361006000b8000200200003ff270002
:1050e0000020e10001a8e10002b0e10003b8e10006
:1050f00011003a000e4890008000fb001104b1003e
:105100000e219000de09900003004100f98f50004d
:1051100002003e0041b520000100370081b52000ab
:105120000c04070080b52000cdf007005e0a900057
:1051300004014000150037000020e10001a8e10053
:1051400002b0e10003b8e100130036008e4a90007f
:105150008500fb001104b1000e239000de0b9000cf
:1051600007004300f98f500002003e00c1b5200047
:105170000100370001b62000f603070000b620004a
:10518000b7f00700de089000010140004e0a9000d1
:10519000be099000500237006022b8006033b800aa
:1051a0000800be000a01be00180407000000e0006d
:1051b0006a0032006022b8000600200007ff2300ca
:1051c00044179800551798006617980077179800ad
:1051d0008006eb000800be000a01be00001f980018
:1051e000111f9800221f9800331f98000e26900070
:1051f000070037008d06e8000802be000a03be0063
:10520000441798005517980066179800771798006c
:105210006022b80006002000470224004e109000d3
:10522000de1090006e119000fe11900098050700ae
:105230000004be000205be000002be000203be0064
:105240000e1890009e1890002e199000be19900024
:10525000ee0307000000e000e6ff3d000c27980089
:105260000006eb004e149000de1490006e159000c6
:10527000fe1590002500370040ed2f00808f56006e
:1052800019003d000c00e00016003a006022b80052
:1052900006002000073524000e1890009e1890008c
:1052a0002e199000be199000790507000002be007b
:1052b0000203be00041f9800151f9800261f9800c7
:1052c000371f98006022b800060020000735240030
:1052d0000800be000a01be006d0507000004be0004
:1052e0000205be001c0020006022b800060020005d
:1052f000470224000800be000a01be00b5040700f2
:105300000004be000205be008d06e9000802be00d2
:105310000a03be000e1890009e1890002e199000ef
:10532000be199000b90307000000e000d2ff35006d
:105330000800be000a01be004017980051179800ef
:1053400062179800731798000e1c90009e1c900026
:105350002e1d9000be1d9000080037006022b8008e
:105360000600200007ff23004417980055179800f7
:1053700066179800771798008006eb008e4a900019
:105380000500fb0008fc0700104f98006e0b900012
:10539000600020000600e000010035006e0890006b
:1053a00071c6b3009e4b900081cf53000a003a00b3
:1053b000ee0890000100e000cf013200cf0137007d
:1053c0008d0f5000d3013c00001f980052c6b3005f
:1053d000425f98001e0037009e499000435f98008e
:1053e0000200370064c6b300445f98000000e80084
:1053f000001f980060c6b300ce5a900080cf5200c4
:1054000013003a000d00e00008003d006000b80005
:105410000200200003ff2300401798005117980056
:1054200062179800731798008006eb0061c6b300fe
:10543000415f980070c6b3001e499000804f510034
:10544000030032008e1990008d814100031f9800e7
:105450004e129000de1290006e139000fe1390002a
:10546000441f9800551f9800661f9800771f9800ea
:105470000800be000a01be0000179800111798002e
:1054800022179800331798000006eb000802be00b0
:105490000a03be0054079800650798007607980035
:1054a000070f9800310037004e1a9000de1a900066
:1054b0006e1b9000fe1b90000e1090009e1090003e
:1054c0002e119000be11900042040700e70707006c
:1054d0000004be000205be008403070080027800bd
:1054e000250f98004e1a9000de1a90006e1b900057
:1054f000fe1b90000800be000a01be00e404070085
:105500000e1290009e1290002e139000be13900079
:10551000df0307000002be000203be0007f0a20086
:105520000417980015179800261798003717980049
:105530006022b80006002000470224004e189000a8
:10554000de1890006e199000fe19900021040700eb
:105550000002be000203be00441f9800551f9800c1
:10556000661f9800771f98000c06e8008e1a9000be
:10557000850f5600ccff35005e049000ee049000cd
:105580007e0590008e0d90006022b800060020007d
:10559000470124004e189000de1890006e1990000c
:1055a000fe199000ba0407000002be000203be000c
:1055b000441f9800551f9800661f9800771f980099
:1055c0000e1090009e1090002e119000be119000c1
:1055d0000e0307000000e0000f0035004e1a900097
:1055e000de1a90006e1b9000fe1b90000e109000c3
:1055f0009e1090002e119000be1190000303070032
:105600000000e00011003a00ae0a90000508a30077
:10561000080032000d0037006000b8006011b800cb
:10562000401f9800511f9800621f9800731f980038
:10563000060037006022b8006033b800441f9800ad
:10564000551f9800661f9800771f98004e1a90000b
:10565000de1a90006e1b9000fe1b90000800be003a
:105660000a01be00900307000002be000203be0054
:1056700004179800151798002617980037179800f8
:105680006022b80006002000470224004e1090005f
:10569000de1090006e119000fe1190007c04070057
:1056a0000004be000205be000002be000203be00f0
:1056b0000e1090009e1090002e119000be119000d0
:1056c000d70207000000e000090035008d06e80061
:1056d00060c6b300ce5a900080cf520008003a0056
:1056e0000e1b90000603e800061f9800110037000b
:1056f0004e149000de1490006e159000fe15900080
